{
  "_format": "hh-sol-artifact-1",
  "contractName": "Lottery",
  "sourceName": "contracts/Lottery.sol",
  "abi": [
    {
      "inputs": [
        {
          "internalType": "uint256",
          "name": "_modulus",
          "type": "uint256"
        },
        {
          "internalType": "uint256",
          "name": "_ticketValue",
          "type": "uint256"
        }
      ],
      "stateMutability": "nonpayable",
      "type": "constructor"
    },
    {
      "anonymous": false,
      "inputs": [
        {
          "indexed": true,
          "internalType": "address",
          "name": "previousOwner",
          "type": "address"
        },
        {
          "indexed": true,
          "internalType": "address",
          "name": "newOwner",
          "type": "address"
        }
      ],
      "name": "OwnershipTransferred",
      "type": "event"
    },
    {
      "inputs": [],
      "name": "getNumber",
      "outputs": [
        {
          "internalType": "uint256",
          "name": "",
          "type": "uint256"
        }
      ],
      "stateMutability": "view",
      "type": "function"
    },
    {
      "inputs": [
        {
          "internalType": "uint256",
          "name": "_guess",
          "type": "uint256"
        }
      ],
      "name": "guessNumber",
      "outputs": [
        {
          "internalType": "bool",
          "name": "",
          "type": "bool"
        }
      ],
      "stateMutability": "payable",
      "type": "function"
    },
    {
      "inputs": [],
      "name": "owner",
      "outputs": [
        {
          "internalType": "address",
          "name": "",
          "type": "address"
        }
      ],
      "stateMutability": "view",
      "type": "function"
    },
    {
      "inputs": [],
      "name": "renounceOwnership",
      "outputs": [],
      "stateMutability": "nonpayable",
      "type": "function"
    },
    {
      "inputs": [
        {
          "internalType": "address",
          "name": "newOwner",
          "type": "address"
        }
      ],
      "name": "transferOwnership",
      "outputs": [],
      "stateMutability": "nonpayable",
      "type": "function"
    }
  ],
  "bytecode": "0x608060405260006002553480156200001657600080fd5b50604051620012a9380380620012a983398181016040528101906200003c91906200019c565b60006200004e6200011b60201b60201c565b9050806000806101000a81548173ffffffffffffffffffffffffffffffffffffffff021916908373ffffffffffffffffffffffffffffffffffffffff1602179055508073ffffffffffffffffffffffffffffffffffffffff16600073ffffffffffffffffffffffffffffffffffffffff167f8be0079c531659141344cd1fd0a4f28419497f9722a3daafe3b4186f6b6457e060405160405180910390a35081600381905550806004819055506200010d6003546200012360201b60201c565b6001819055505050620003d1565b600033905090565b6000600260008154809291906200013a9062000294565b9190505550814233600254604051602001620001599392919062000213565b6040516020818303038152906040528051906020012060001c6200017e919062000314565b9050919050565b6000815190506200019681620003b7565b92915050565b60008060408385031215620001b057600080fd5b6000620001c08582860162000185565b9250506020620001d38582860162000185565b9150509250929050565b620001f2620001ec8262000256565b620002e2565b82525050565b6200020d62000207826200028a565b6200030a565b82525050565b6000620002218286620001f8565b602082019150620002338285620001dd565b601482019150620002458284620001f8565b602082019150819050949350505050565b600062000263826200026a565b9050919050565b600073ffffffffffffffffffffffffffffffffffffffff82169050919050565b6000819050919050565b6000620002a1826200028a565b91507fffffffffffffffffffffffffffffffffffffffffffffffffffffffffffffffff821415620002d757620002d66200034c565b5b600182019050919050565b6000620002ef82620002f6565b9050919050565b60006200030382620003aa565b9050919050565b6000819050919050565b600062000321826200028a565b91506200032e836200028a565b9250826200034157620003406200037b565b5b828206905092915050565b7f4e487b7100000000000000000000000000000000000000000000000000000000600052601160045260246000fd5b7f4e487b7100000000000000000000000000000000000000000000000000000000600052601260045260246000fd5b60008160601b9050919050565b620003c2816200028a565b8114620003ce57600080fd5b50565b610ec880620003e16000396000f3fe60806040526004361061004a5760003560e01c8063715018a61461004f5780638da5cb5b14610066578063b438d01814610091578063f2c9ecd8146100c1578063f2fde38b146100ec575b600080fd5b34801561005b57600080fd5b50610064610115565b005b34801561007257600080fd5b5061007b61024f565b6040516100889190610ae0565b60405180910390f35b6100ab60048036038101906100a69190610938565b610278565b6040516100b89190610afb565b60405180910390f35b3480156100cd57600080fd5b506100d6610499565b6040516100e39190610bb6565b60405180910390f35b3480156100f857600080fd5b50610113600480360381019061010e919061090f565b61051f565b005b61011d6106c8565b73ffffffffffffffffffffffffffffffffffffffff1661013b61024f565b73ffffffffffffffffffffffffffffffffffffffff1614610191576040517f08c379a000000000000000000000000000000000000000000000000000000000815260040161018890610b76565b60405180910390fd5b600073ffffffffffffffffffffffffffffffffffffffff1660008054906101000a900473ffffffffffffffffffffffffffffffffffffffff1673ffffffffffffffffffffffffffffffffffffffff167f8be0079c531659141344cd1fd0a4f28419497f9722a3daafe3b4186f6b6457e060405160405180910390a360008060006101000a81548173ffffffffffffffffffffffffffffffffffffffff021916908373ffffffffffffffffffffffffffffffffffffffff160217905550565b60008060009054906101000a900473ffffffffffffffffffffffffffffffffffffffff16905090565b600060045434146102be576040517f08c379a00000000000000000000000000000000000000000000000000000000081526004016102b590610b96565b60405180910390fd5b60003073ffffffffffffffffffffffffffffffffffffffff16346040516102e490610a8e565b60006040518083038185875af1925050503d8060008114610321576040519150601f19603f3d011682016040523d82523d6000602084013e610326565b606091505b505090508061036a576040517f08c379a000000000000000000000000000000000000000000000000000000000815260040161036190610b56565b60405180910390fd5b6006339080600181540180825580915050600190039060005260206000200160009091909190916101000a81548173ffffffffffffffffffffffffffffffffffffffff021916908373ffffffffffffffffffffffffffffffffffffffff1602179055506001600560003373ffffffffffffffffffffffffffffffffffffffff1673ffffffffffffffffffffffffffffffffffffffff16815260200190815260200160002060006101000a81548160ff02191690831515021790555060015483141561048e5760006104396106d0565b90508061047b576040517f08c379a000000000000000000000000000000000000000000000000000000000815260040161047290610b16565b60405180910390fd5b610483610744565b600192505050610494565b60009150505b919050565b60006104a36106c8565b73ffffffffffffffffffffffffffffffffffffffff166104c161024f565b73ffffffffffffffffffffffffffffffffffffffff1614610517576040517f08c379a000000000000000000000000000000000000000000000000000000000815260040161050e90610b76565b60405180910390fd5b600154905090565b6105276106c8565b73ffffffffffffffffffffffffffffffffffffffff1661054561024f565b73ffffffffffffffffffffffffffffffffffffffff161461059b576040517f08c379a000000000000000000000000000000000000000000000000000000000815260040161059290610b76565b60405180910390fd5b600073ffffffffffffffffffffffffffffffffffffffff168173ffffffffffffffffffffffffffffffffffffffff16141561060b576040517f08c379a000000000000000000000000000000000000000000000000000000000815260040161060290610b36565b60405180910390fd5b8073ffffffffffffffffffffffffffffffffffffffff1660008054906101000a900473ffffffffffffffffffffffffffffffffffffffff1673ffffffffffffffffffffffffffffffffffffffff167f8be0079c531659141344cd1fd0a4f28419497f9722a3daafe3b4186f6b6457e060405160405180910390a3806000806101000a81548173ffffffffffffffffffffffffffffffffffffffff021916908373ffffffffffffffffffffffffffffffffffffffff16021790555050565b600033905090565b6000803373ffffffffffffffffffffffffffffffffffffffff16476040516106f790610a8e565b60006040518083038185875af1925050503d8060008114610734576040519150601f19603f3d011682016040523d82523d6000602084013e610739565b606091505b505090508091505090565b61074f60035461084b565b60018190555060005b60068054905081101561083a576000600682815481106107a1577f4e487b7100000000000000000000000000000000000000000000000000000000600052603260045260246000fd5b9060005260206000200160009054906101000a900473ffffffffffffffffffffffffffffffffffffffff1690506000600560008373ffffffffffffffffffffffffffffffffffffffff1673ffffffffffffffffffffffffffffffffffffffff16815260200190815260200160002060006101000a81548160ff02191690831515021790555050808061083290610c35565b915050610758565b506006600061084991906108a7565b565b60006002600081548092919061086090610c35565b919050555081423360025460405160200161087d93929190610aa3565b6040516020818303038152906040528051906020012060001c6108a09190610cac565b9050919050565b50805460008255906000526020600020908101906108c591906108c8565b50565b5b808211156108e15760008160009055506001016108c9565b5090565b6000813590506108f481610e64565b92915050565b60008135905061090981610e7b565b92915050565b60006020828403121561092157600080fd5b600061092f848285016108e5565b91505092915050565b60006020828403121561094a57600080fd5b6000610958848285016108fa565b91505092915050565b61096a81610bed565b82525050565b61098161097c82610bed565b610c7e565b82525050565b61099081610bff565b82525050565b60006109a3602183610bdc565b91506109ae82610d48565b604082019050919050565b60006109c6602683610bdc565b91506109d182610d97565b604082019050919050565b60006109e9601683610bdc565b91506109f482610de6565b602082019050919050565b6000610a0c602083610bdc565b9150610a1782610e0f565b602082019050919050565b6000610a2f601f83610bdc565b9150610a3a82610e38565b602082019050919050565b6000610a52600083610bd1565b9150610a5d82610e61565b600082019050919050565b610a7181610c2b565b82525050565b610a88610a8382610c2b565b610ca2565b82525050565b6000610a9982610a45565b9150819050919050565b6000610aaf8286610a77565b602082019150610abf8285610970565b601482019150610acf8284610a77565b602082019150819050949350505050565b6000602082019050610af56000830184610961565b92915050565b6000602082019050610b106000830184610987565b92915050565b60006020820190508181036000830152610b2f81610996565b9050919050565b60006020820190508181036000830152610b4f816109b9565b9050919050565b60006020820190508181036000830152610b6f816109dc565b9050919050565b60006020820190508181036000830152610b8f816109ff565b9050919050565b60006020820190508181036000830152610baf81610a22565b9050919050565b6000602082019050610bcb6000830184610a68565b92915050565b600081905092915050565b600082825260208201905092915050565b6000610bf882610c0b565b9050919050565b60008115159050919050565b600073ffffffffffffffffffffffffffffffffffffffff82169050919050565b6000819050919050565b6000610c4082610c2b565b91507fffffffffffffffffffffffffffffffffffffffffffffffffffffffffffffffff821415610c7357610c72610cdd565b5b600182019050919050565b6000610c8982610c90565b9050919050565b6000610c9b82610d3b565b9050919050565b6000819050919050565b6000610cb782610c2b565b9150610cc283610c2b565b925082610cd257610cd1610d0c565b5b828206905092915050565b7f4e487b7100000000000000000000000000000000000000000000000000000000600052601160045260246000fd5b7f4e487b7100000000000000000000000000000000000000000000000000000000600052601260045260246000fd5b60008160601b9050919050565b7f46756e647320636f756c64206e6f742062652073656e7420746f20706c61796560008201527f7200000000000000000000000000000000000000000000000000000000000000602082015250565b7f4f776e61626c653a206e6577206f776e657220697320746865207a65726f206160008201527f6464726573730000000000000000000000000000000000000000000000000000602082015250565b7f5469636b6574207075726368617365206661696c656400000000000000000000600082015250565b7f4f776e61626c653a2063616c6c6572206973206e6f7420746865206f776e6572600082015250565b7f496e636f7272656374207469636b65742076616c756520726563656976656400600082015250565b50565b610e6d81610bed565b8114610e7857600080fd5b50565b610e8481610c2b565b8114610e8f57600080fd5b5056fea26469706673582212200da3edca91a08a558eb9e78e77eb67e33c07ff07d3109a45f4721d9156d8df2464736f6c63430008010033",
  "linkReferences": {},
  "deployedLinkReferences": {}
}