{
  "_format": "hh-sol-artifact-1",
  "contractName": "Lottery",
  "sourceName": "contracts/Lottery.sol",
  "abi": [
    {
      "inputs": [
        {
          "internalType": "uint256",
          "name": "_modulus",
          "type": "uint256"
        },
        {
          "internalType": "uint256",
          "name": "_ticketValue",
          "type": "uint256"
        }
      ],
      "stateMutability": "nonpayable",
      "type": "constructor"
    },
    {
      "anonymous": false,
      "inputs": [
        {
          "indexed": true,
          "internalType": "address",
          "name": "previousOwner",
          "type": "address"
        },
        {
          "indexed": true,
          "internalType": "address",
          "name": "newOwner",
          "type": "address"
        }
      ],
      "name": "OwnershipTransferred",
      "type": "event"
    },
    {
      "anonymous": false,
      "inputs": [
        {
          "indexed": true,
          "internalType": "address",
          "name": "from",
          "type": "address"
        },
        {
          "indexed": false,
          "internalType": "bool",
          "name": "isWinningTicket",
          "type": "bool"
        }
      ],
      "name": "TicketBought",
      "type": "event"
    },
    {
      "inputs": [],
      "name": "getNumber",
      "outputs": [
        {
          "internalType": "uint256",
          "name": "",
          "type": "uint256"
        }
      ],
      "stateMutability": "view",
      "type": "function"
    },
    {
      "inputs": [],
      "name": "getTicketValue",
      "outputs": [
        {
          "internalType": "uint256",
          "name": "",
          "type": "uint256"
        }
      ],
      "stateMutability": "view",
      "type": "function"
    },
    {
      "inputs": [
        {
          "internalType": "uint256",
          "name": "_guess",
          "type": "uint256"
        }
      ],
      "name": "guessNumber",
      "outputs": [],
      "stateMutability": "payable",
      "type": "function"
    },
    {
      "inputs": [],
      "name": "owner",
      "outputs": [
        {
          "internalType": "address",
          "name": "",
          "type": "address"
        }
      ],
      "stateMutability": "view",
      "type": "function"
    },
    {
      "inputs": [],
      "name": "renounceOwnership",
      "outputs": [],
      "stateMutability": "nonpayable",
      "type": "function"
    },
    {
      "inputs": [
        {
          "internalType": "uint256",
          "name": "_modulus",
          "type": "uint256"
        }
      ],
      "name": "setModulus",
      "outputs": [],
      "stateMutability": "nonpayable",
      "type": "function"
    },
    {
      "inputs": [
        {
          "internalType": "uint256",
          "name": "_ticketValue",
          "type": "uint256"
        }
      ],
      "name": "setTicketValue",
      "outputs": [],
      "stateMutability": "nonpayable",
      "type": "function"
    },
    {
      "inputs": [
        {
          "internalType": "address",
          "name": "newOwner",
          "type": "address"
        }
      ],
      "name": "transferOwnership",
      "outputs": [],
      "stateMutability": "nonpayable",
      "type": "function"
    }
  ],
  "bytecode": "0x608060405260006002553480156200001657600080fd5b50604051620013d1380380620013d183398181016040528101906200003c91906200019c565b60006200004e6200011b60201b60201c565b9050806000806101000a81548173ffffffffffffffffffffffffffffffffffffffff021916908373ffffffffffffffffffffffffffffffffffffffff1602179055508073ffffffffffffffffffffffffffffffffffffffff16600073ffffffffffffffffffffffffffffffffffffffff167f8be0079c531659141344cd1fd0a4f28419497f9722a3daafe3b4186f6b6457e060405160405180910390a35081600381905550806004819055506200010d6003546200012360201b60201c565b6001819055505050620003d1565b600033905090565b6000600260008154809291906200013a9062000294565b9190505550814233600254604051602001620001599392919062000213565b6040516020818303038152906040528051906020012060001c6200017e919062000314565b9050919050565b6000815190506200019681620003b7565b92915050565b60008060408385031215620001b057600080fd5b6000620001c08582860162000185565b9250506020620001d38582860162000185565b9150509250929050565b620001f2620001ec8262000256565b620002e2565b82525050565b6200020d62000207826200028a565b6200030a565b82525050565b6000620002218286620001f8565b602082019150620002338285620001dd565b601482019150620002458284620001f8565b602082019150819050949350505050565b600062000263826200026a565b9050919050565b600073ffffffffffffffffffffffffffffffffffffffff82169050919050565b6000819050919050565b6000620002a1826200028a565b91507fffffffffffffffffffffffffffffffffffffffffffffffffffffffffffffffff821415620002d757620002d66200034c565b5b600182019050919050565b6000620002ef82620002f6565b9050919050565b60006200030382620003aa565b9050919050565b6000819050919050565b600062000321826200028a565b91506200032e836200028a565b9250826200034157620003406200037b565b5b828206905092915050565b7f4e487b7100000000000000000000000000000000000000000000000000000000600052601160045260246000fd5b7f4e487b7100000000000000000000000000000000000000000000000000000000600052601260045260246000fd5b60008160601b9050919050565b620003c2816200028a565b8114620003ce57600080fd5b50565b610ff080620003e16000396000f3fe60806040526004361061007b5760003560e01c8063917356cb1161004e578063917356cb14610116578063b438d0181461013f578063f2c9ecd81461015b578063f2fde38b146101865761007b565b80633f644101146100805780634e9f1acd146100a9578063715018a6146100d45780638da5cb5b146100eb575b600080fd5b34801561008c57600080fd5b506100a760048036038101906100a29190610acc565b6101af565b005b3480156100b557600080fd5b506100be610235565b6040516100cb9190610d07565b60405180910390f35b3480156100e057600080fd5b506100e961023f565b005b3480156100f757600080fd5b50610100610379565b60405161010d9190610c51565b60405180910390f35b34801561012257600080fd5b5061013d60048036038101906101389190610acc565b6103a2565b005b61015960048036038101906101549190610acc565b610428565b005b34801561016757600080fd5b5061017061062d565b60405161017d9190610d07565b60405180910390f35b34801561019257600080fd5b506101ad60048036038101906101a89190610aa3565b6106b3565b005b6101b761085c565b73ffffffffffffffffffffffffffffffffffffffff166101d5610379565b73ffffffffffffffffffffffffffffffffffffffff161461022b576040517f08c379a000000000000000000000000000000000000000000000000000000000815260040161022290610cc7565b60405180910390fd5b8060038190555050565b6000600454905090565b61024761085c565b73ffffffffffffffffffffffffffffffffffffffff16610265610379565b73ffffffffffffffffffffffffffffffffffffffff16146102bb576040517f08c379a00000000000000000000000000000000000000000000000000000000081526004016102b290610cc7565b60405180910390fd5b600073ffffffffffffffffffffffffffffffffffffffff1660008054906101000a900473ffffffffffffffffffffffffffffffffffffffff1673ffffffffffffffffffffffffffffffffffffffff167f8be0079c531659141344cd1fd0a4f28419497f9722a3daafe3b4186f6b6457e060405160405180910390a360008060006101000a81548173ffffffffffffffffffffffffffffffffffffffff021916908373ffffffffffffffffffffffffffffffffffffffff160217905550565b60008060009054906101000a900473ffffffffffffffffffffffffffffffffffffffff16905090565b6103aa61085c565b73ffffffffffffffffffffffffffffffffffffffff166103c8610379565b73ffffffffffffffffffffffffffffffffffffffff161461041e576040517f08c379a000000000000000000000000000000000000000000000000000000000815260040161041590610cc7565b60405180910390fd5b8060048190555050565b600454341461046c576040517f08c379a000000000000000000000000000000000000000000000000000000000815260040161046390610ce7565b60405180910390fd5b6006339080600181540180825580915050600190039060005260206000200160009091909190916101000a81548173ffffffffffffffffffffffffffffffffffffffff021916908373ffffffffffffffffffffffffffffffffffffffff1602179055506001600560003373ffffffffffffffffffffffffffffffffffffffff1673ffffffffffffffffffffffffffffffffffffffff16815260200190815260200160002060006101000a81548160ff0219169083151502179055506001548114156105da57600061053b610864565b90508061057d576040517f08c379a000000000000000000000000000000000000000000000000000000000815260040161057490610c87565b60405180910390fd5b6105856108d8565b3373ffffffffffffffffffffffffffffffffffffffff167f115ac27c4e01c5837a55179a96bfd2e87096109e0737e62983673b9e203afb4d60016040516105cc9190610c6c565b60405180910390a25061062a565b3373ffffffffffffffffffffffffffffffffffffffff167f115ac27c4e01c5837a55179a96bfd2e87096109e0737e62983673b9e203afb4d60006040516106219190610c6c565b60405180910390a25b50565b600061063761085c565b73ffffffffffffffffffffffffffffffffffffffff16610655610379565b73ffffffffffffffffffffffffffffffffffffffff16146106ab576040517f08c379a00000000000000000000000000000000000000000000000000000000081526004016106a290610cc7565b60405180910390fd5b600154905090565b6106bb61085c565b73ffffffffffffffffffffffffffffffffffffffff166106d9610379565b73ffffffffffffffffffffffffffffffffffffffff161461072f576040517f08c379a000000000000000000000000000000000000000000000000000000000815260040161072690610cc7565b60405180910390fd5b600073ffffffffffffffffffffffffffffffffffffffff168173ffffffffffffffffffffffffffffffffffffffff16141561079f576040517f08c379a000000000000000000000000000000000000000000000000000000000815260040161079690610ca7565b60405180910390fd5b8073ffffffffffffffffffffffffffffffffffffffff1660008054906101000a900473ffffffffffffffffffffffffffffffffffffffff1673ffffffffffffffffffffffffffffffffffffffff167f8be0079c531659141344cd1fd0a4f28419497f9722a3daafe3b4186f6b6457e060405160405180910390a3806000806101000a81548173ffffffffffffffffffffffffffffffffffffffff021916908373ffffffffffffffffffffffffffffffffffffffff16021790555050565b600033905090565b6000803373ffffffffffffffffffffffffffffffffffffffff164760405161088b90610bff565b60006040518083038185875af1925050503d80600081146108c8576040519150601f19603f3d011682016040523d82523d6000602084013e6108cd565b606091505b505090508091505090565b6108e36003546109df565b60018190555060005b6006805490508110156109ce57600060068281548110610935577f4e487b7100000000000000000000000000000000000000000000000000000000600052603260045260246000fd5b9060005260206000200160009054906101000a900473ffffffffffffffffffffffffffffffffffffffff1690506000600560008373ffffffffffffffffffffffffffffffffffffffff1673ffffffffffffffffffffffffffffffffffffffff16815260200190815260200160002060006101000a81548160ff0219169083151502179055505080806109c690610d86565b9150506108ec565b50600660006109dd9190610a3b565b565b6000600260008154809291906109f490610d86565b9190505550814233600254604051602001610a1193929190610c14565b6040516020818303038152906040528051906020012060001c610a349190610dfd565b9050919050565b5080546000825590600052602060002090810190610a599190610a5c565b50565b5b80821115610a75576000816000905550600101610a5d565b5090565b600081359050610a8881610f8c565b92915050565b600081359050610a9d81610fa3565b92915050565b600060208284031215610ab557600080fd5b6000610ac384828501610a79565b91505092915050565b600060208284031215610ade57600080fd5b6000610aec84828501610a8e565b91505092915050565b610afe81610d3e565b82525050565b610b15610b1082610d3e565b610dcf565b82525050565b610b2481610d50565b82525050565b6000610b37602183610d2d565b9150610b4282610e99565b604082019050919050565b6000610b5a602683610d2d565b9150610b6582610ee8565b604082019050919050565b6000610b7d602083610d2d565b9150610b8882610f37565b602082019050919050565b6000610ba0601f83610d2d565b9150610bab82610f60565b602082019050919050565b6000610bc3600083610d22565b9150610bce82610f89565b600082019050919050565b610be281610d7c565b82525050565b610bf9610bf482610d7c565b610df3565b82525050565b6000610c0a82610bb6565b9150819050919050565b6000610c208286610be8565b602082019150610c308285610b04565b601482019150610c408284610be8565b602082019150819050949350505050565b6000602082019050610c666000830184610af5565b92915050565b6000602082019050610c816000830184610b1b565b92915050565b60006020820190508181036000830152610ca081610b2a565b9050919050565b60006020820190508181036000830152610cc081610b4d565b9050919050565b60006020820190508181036000830152610ce081610b70565b9050919050565b60006020820190508181036000830152610d0081610b93565b9050919050565b6000602082019050610d1c6000830184610bd9565b92915050565b600081905092915050565b600082825260208201905092915050565b6000610d4982610d5c565b9050919050565b60008115159050919050565b600073ffffffffffffffffffffffffffffffffffffffff82169050919050565b6000819050919050565b6000610d9182610d7c565b91507fffffffffffffffffffffffffffffffffffffffffffffffffffffffffffffffff821415610dc457610dc3610e2e565b5b600182019050919050565b6000610dda82610de1565b9050919050565b6000610dec82610e8c565b9050919050565b6000819050919050565b6000610e0882610d7c565b9150610e1383610d7c565b925082610e2357610e22610e5d565b5b828206905092915050565b7f4e487b7100000000000000000000000000000000000000000000000000000000600052601160045260246000fd5b7f4e487b7100000000000000000000000000000000000000000000000000000000600052601260045260246000fd5b60008160601b9050919050565b7f46756e647320636f756c64206e6f742062652073656e7420746f20706c61796560008201527f7200000000000000000000000000000000000000000000000000000000000000602082015250565b7f4f776e61626c653a206e6577206f776e657220697320746865207a65726f206160008201527f6464726573730000000000000000000000000000000000000000000000000000602082015250565b7f4f776e61626c653a2063616c6c6572206973206e6f7420746865206f776e6572600082015250565b7f496e636f7272656374207469636b65742076616c756520726563656976656400600082015250565b50565b610f9581610d3e565b8114610fa057600080fd5b50565b610fac81610d7c565b8114610fb757600080fd5b5056fea2646970667358221220f44311aba5aaba3973c3423e6ad6c527071885f3716fe8ae062d899dd3a27e0564736f6c63430008010033",
  "linkReferences": {},
  "deployedLinkReferences": {}
}