{
  "_format": "hh-sol-artifact-1",
  "contractName": "Lottery",
  "sourceName": "contracts/Lottery.sol",
  "abi": [
    {
      "inputs": [
        {
          "internalType": "uint256",
          "name": "_modulus",
          "type": "uint256"
        },
        {
          "internalType": "uint256",
          "name": "_ticketValue",
          "type": "uint256"
        }
      ],
      "stateMutability": "nonpayable",
      "type": "constructor"
    },
    {
      "anonymous": false,
      "inputs": [
        {
          "indexed": true,
          "internalType": "address",
          "name": "previousOwner",
          "type": "address"
        },
        {
          "indexed": true,
          "internalType": "address",
          "name": "newOwner",
          "type": "address"
        }
      ],
      "name": "OwnershipTransferred",
      "type": "event"
    },
    {
      "inputs": [],
      "name": "getNumber",
      "outputs": [
        {
          "internalType": "uint256",
          "name": "",
          "type": "uint256"
        }
      ],
      "stateMutability": "view",
      "type": "function"
    },
    {
      "inputs": [
        {
          "internalType": "uint256",
          "name": "_guess",
          "type": "uint256"
        }
      ],
      "name": "guessNumber",
      "outputs": [
        {
          "internalType": "bool",
          "name": "",
          "type": "bool"
        }
      ],
      "stateMutability": "payable",
      "type": "function"
    },
    {
      "inputs": [],
      "name": "owner",
      "outputs": [
        {
          "internalType": "address",
          "name": "",
          "type": "address"
        }
      ],
      "stateMutability": "view",
      "type": "function"
    },
    {
      "inputs": [],
      "name": "renounceOwnership",
      "outputs": [],
      "stateMutability": "nonpayable",
      "type": "function"
    },
    {
      "inputs": [
        {
          "internalType": "uint256",
          "name": "_modulus",
          "type": "uint256"
        }
      ],
      "name": "setModulus",
      "outputs": [],
      "stateMutability": "nonpayable",
      "type": "function"
    },
    {
      "inputs": [
        {
          "internalType": "uint256",
          "name": "_ticketValue",
          "type": "uint256"
        }
      ],
      "name": "setTicketValue",
      "outputs": [],
      "stateMutability": "nonpayable",
      "type": "function"
    },
    {
      "inputs": [
        {
          "internalType": "address",
          "name": "newOwner",
          "type": "address"
        }
      ],
      "name": "transferOwnership",
      "outputs": [],
      "stateMutability": "nonpayable",
      "type": "function"
    }
  ],
  "bytecode": "0x608060405260006002553480156200001657600080fd5b50604051620013133803806200131383398181016040528101906200003c91906200019c565b60006200004e6200011b60201b60201c565b9050806000806101000a81548173ffffffffffffffffffffffffffffffffffffffff021916908373ffffffffffffffffffffffffffffffffffffffff1602179055508073ffffffffffffffffffffffffffffffffffffffff16600073ffffffffffffffffffffffffffffffffffffffff167f8be0079c531659141344cd1fd0a4f28419497f9722a3daafe3b4186f6b6457e060405160405180910390a35081600381905550806004819055506200010d6003546200012360201b60201c565b6001819055505050620003d1565b600033905090565b6000600260008154809291906200013a9062000294565b9190505550814233600254604051602001620001599392919062000213565b6040516020818303038152906040528051906020012060001c6200017e919062000314565b9050919050565b6000815190506200019681620003b7565b92915050565b60008060408385031215620001b057600080fd5b6000620001c08582860162000185565b9250506020620001d38582860162000185565b9150509250929050565b620001f2620001ec8262000256565b620002e2565b82525050565b6200020d62000207826200028a565b6200030a565b82525050565b6000620002218286620001f8565b602082019150620002338285620001dd565b601482019150620002458284620001f8565b602082019150819050949350505050565b600062000263826200026a565b9050919050565b600073ffffffffffffffffffffffffffffffffffffffff82169050919050565b6000819050919050565b6000620002a1826200028a565b91507fffffffffffffffffffffffffffffffffffffffffffffffffffffffffffffffff821415620002d757620002d66200034c565b5b600182019050919050565b6000620002ef82620002f6565b9050919050565b60006200030382620003aa565b9050919050565b6000819050919050565b600062000321826200028a565b91506200032e836200028a565b9250826200034157620003406200037b565b5b828206905092915050565b7f4e487b7100000000000000000000000000000000000000000000000000000000600052601160045260246000fd5b7f4e487b7100000000000000000000000000000000000000000000000000000000600052601260045260246000fd5b60008160601b9050919050565b620003c2816200028a565b8114620003ce57600080fd5b50565b610f3280620003e16000396000f3fe6080604052600436106100705760003560e01c8063917356cb1161004e578063917356cb146100e0578063b438d01814610109578063f2c9ecd814610139578063f2fde38b1461016457610070565b80633f64410114610075578063715018a61461009e5780638da5cb5b146100b5575b600080fd5b34801561008157600080fd5b5061009c60048036038101906100979190610a0e565b61018d565b005b3480156100aa57600080fd5b506100b3610213565b005b3480156100c157600080fd5b506100ca61034d565b6040516100d79190610b93565b60405180910390f35b3480156100ec57600080fd5b5061010760048036038101906101029190610a0e565b610376565b005b610123600480360381019061011e9190610a0e565b6103fc565b6040516101309190610bae565b60405180910390f35b34801561014557600080fd5b5061014e61056f565b60405161015b9190610c49565b60405180910390f35b34801561017057600080fd5b5061018b600480360381019061018691906109e5565b6105f5565b005b61019561079e565b73ffffffffffffffffffffffffffffffffffffffff166101b361034d565b73ffffffffffffffffffffffffffffffffffffffff1614610209576040517f08c379a000000000000000000000000000000000000000000000000000000000815260040161020090610c09565b60405180910390fd5b8060038190555050565b61021b61079e565b73ffffffffffffffffffffffffffffffffffffffff1661023961034d565b73ffffffffffffffffffffffffffffffffffffffff161461028f576040517f08c379a000000000000000000000000000000000000000000000000000000000815260040161028690610c09565b60405180910390fd5b600073ffffffffffffffffffffffffffffffffffffffff1660008054906101000a900473ffffffffffffffffffffffffffffffffffffffff1673ffffffffffffffffffffffffffffffffffffffff167f8be0079c531659141344cd1fd0a4f28419497f9722a3daafe3b4186f6b6457e060405160405180910390a360008060006101000a81548173ffffffffffffffffffffffffffffffffffffffff021916908373ffffffffffffffffffffffffffffffffffffffff160217905550565b60008060009054906101000a900473ffffffffffffffffffffffffffffffffffffffff16905090565b61037e61079e565b73ffffffffffffffffffffffffffffffffffffffff1661039c61034d565b73ffffffffffffffffffffffffffffffffffffffff16146103f2576040517f08c379a00000000000000000000000000000000000000000000000000000000081526004016103e990610c09565b60405180910390fd5b8060048190555050565b60006004543414610442576040517f08c379a000000000000000000000000000000000000000000000000000000000815260040161043990610c29565b60405180910390fd5b6006339080600181540180825580915050600190039060005260206000200160009091909190916101000a81548173ffffffffffffffffffffffffffffffffffffffff021916908373ffffffffffffffffffffffffffffffffffffffff1602179055506001600560003373ffffffffffffffffffffffffffffffffffffffff1673ffffffffffffffffffffffffffffffffffffffff16815260200190815260200160002060006101000a81548160ff0219169083151502179055506001548214156105655760006105116107a6565b905080610553576040517f08c379a000000000000000000000000000000000000000000000000000000000815260040161054a90610bc9565b60405180910390fd5b61055b61081a565b600191505061056a565b600090505b919050565b600061057961079e565b73ffffffffffffffffffffffffffffffffffffffff1661059761034d565b73ffffffffffffffffffffffffffffffffffffffff16146105ed576040517f08c379a00000000000000000000000000000000000000000000000000000000081526004016105e490610c09565b60405180910390fd5b600154905090565b6105fd61079e565b73ffffffffffffffffffffffffffffffffffffffff1661061b61034d565b73ffffffffffffffffffffffffffffffffffffffff1614610671576040517f08c379a000000000000000000000000000000000000000000000000000000000815260040161066890610c09565b60405180910390fd5b600073ffffffffffffffffffffffffffffffffffffffff168173ffffffffffffffffffffffffffffffffffffffff1614156106e1576040517f08c379a00000000000000000000000000000000000000000000000000000000081526004016106d890610be9565b60405180910390fd5b8073ffffffffffffffffffffffffffffffffffffffff1660008054906101000a900473ffffffffffffffffffffffffffffffffffffffff1673ffffffffffffffffffffffffffffffffffffffff167f8be0079c531659141344cd1fd0a4f28419497f9722a3daafe3b4186f6b6457e060405160405180910390a3806000806101000a81548173ffffffffffffffffffffffffffffffffffffffff021916908373ffffffffffffffffffffffffffffffffffffffff16021790555050565b600033905090565b6000803373ffffffffffffffffffffffffffffffffffffffff16476040516107cd90610b41565b60006040518083038185875af1925050503d806000811461080a576040519150601f19603f3d011682016040523d82523d6000602084013e61080f565b606091505b505090508091505090565b610825600354610921565b60018190555060005b60068054905081101561091057600060068281548110610877577f4e487b7100000000000000000000000000000000000000000000000000000000600052603260045260246000fd5b9060005260206000200160009054906101000a900473ffffffffffffffffffffffffffffffffffffffff1690506000600560008373ffffffffffffffffffffffffffffffffffffffff1673ffffffffffffffffffffffffffffffffffffffff16815260200190815260200160002060006101000a81548160ff02191690831515021790555050808061090890610cc8565b91505061082e565b506006600061091f919061097d565b565b60006002600081548092919061093690610cc8565b919050555081423360025460405160200161095393929190610b56565b6040516020818303038152906040528051906020012060001c6109769190610d3f565b9050919050565b508054600082559060005260206000209081019061099b919061099e565b50565b5b808211156109b757600081600090555060010161099f565b5090565b6000813590506109ca81610ece565b92915050565b6000813590506109df81610ee5565b92915050565b6000602082840312156109f757600080fd5b6000610a05848285016109bb565b91505092915050565b600060208284031215610a2057600080fd5b6000610a2e848285016109d0565b91505092915050565b610a4081610c80565b82525050565b610a57610a5282610c80565b610d11565b82525050565b610a6681610c92565b82525050565b6000610a79602183610c6f565b9150610a8482610ddb565b604082019050919050565b6000610a9c602683610c6f565b9150610aa782610e2a565b604082019050919050565b6000610abf602083610c6f565b9150610aca82610e79565b602082019050919050565b6000610ae2601f83610c6f565b9150610aed82610ea2565b602082019050919050565b6000610b05600083610c64565b9150610b1082610ecb565b600082019050919050565b610b2481610cbe565b82525050565b610b3b610b3682610cbe565b610d35565b82525050565b6000610b4c82610af8565b9150819050919050565b6000610b628286610b2a565b602082019150610b728285610a46565b601482019150610b828284610b2a565b602082019150819050949350505050565b6000602082019050610ba86000830184610a37565b92915050565b6000602082019050610bc36000830184610a5d565b92915050565b60006020820190508181036000830152610be281610a6c565b9050919050565b60006020820190508181036000830152610c0281610a8f565b9050919050565b60006020820190508181036000830152610c2281610ab2565b9050919050565b60006020820190508181036000830152610c4281610ad5565b9050919050565b6000602082019050610c5e6000830184610b1b565b92915050565b600081905092915050565b600082825260208201905092915050565b6000610c8b82610c9e565b9050919050565b60008115159050919050565b600073ffffffffffffffffffffffffffffffffffffffff82169050919050565b6000819050919050565b6000610cd382610cbe565b91507fffffffffffffffffffffffffffffffffffffffffffffffffffffffffffffffff821415610d0657610d05610d70565b5b600182019050919050565b6000610d1c82610d23565b9050919050565b6000610d2e82610dce565b9050919050565b6000819050919050565b6000610d4a82610cbe565b9150610d5583610cbe565b925082610d6557610d64610d9f565b5b828206905092915050565b7f4e487b7100000000000000000000000000000000000000000000000000000000600052601160045260246000fd5b7f4e487b7100000000000000000000000000000000000000000000000000000000600052601260045260246000fd5b60008160601b9050919050565b7f46756e647320636f756c64206e6f742062652073656e7420746f20706c61796560008201527f7200000000000000000000000000000000000000000000000000000000000000602082015250565b7f4f776e61626c653a206e6577206f776e657220697320746865207a65726f206160008201527f6464726573730000000000000000000000000000000000000000000000000000602082015250565b7f4f776e61626c653a2063616c6c6572206973206e6f7420746865206f776e6572600082015250565b7f496e636f7272656374207469636b65742076616c756520726563656976656400600082015250565b50565b610ed781610c80565b8114610ee257600080fd5b50565b610eee81610cbe565b8114610ef957600080fd5b5056fea2646970667358221220120acb2e15fc8265fba8226d625d821a338fd27f7dabdd8208e427875e3c71e364736f6c63430008010033",
  "linkReferences": {},
  "deployedLinkReferences": {}
}