{
  "_format": "hh-sol-artifact-1",
  "contractName": "Lottery",
  "sourceName": "contracts/Lottery.sol",
  "abi": [
    {
      "inputs": [
        {
          "internalType": "uint256",
          "name": "_modulus",
          "type": "uint256"
        },
        {
          "internalType": "uint256",
          "name": "_ticketValue",
          "type": "uint256"
        }
      ],
      "stateMutability": "nonpayable",
      "type": "constructor"
    },
    {
      "anonymous": false,
      "inputs": [
        {
          "indexed": true,
          "internalType": "address",
          "name": "previousOwner",
          "type": "address"
        },
        {
          "indexed": true,
          "internalType": "address",
          "name": "newOwner",
          "type": "address"
        }
      ],
      "name": "OwnershipTransferred",
      "type": "event"
    },
    {
      "inputs": [],
      "name": "getNumber",
      "outputs": [
        {
          "internalType": "uint256",
          "name": "",
          "type": "uint256"
        }
      ],
      "stateMutability": "view",
      "type": "function"
    },
    {
      "inputs": [],
      "name": "getTicketValue",
      "outputs": [
        {
          "internalType": "uint256",
          "name": "",
          "type": "uint256"
        }
      ],
      "stateMutability": "view",
      "type": "function"
    },
    {
      "inputs": [
        {
          "internalType": "uint256",
          "name": "_guess",
          "type": "uint256"
        }
      ],
      "name": "guessNumber",
      "outputs": [
        {
          "internalType": "bool",
          "name": "",
          "type": "bool"
        }
      ],
      "stateMutability": "payable",
      "type": "function"
    },
    {
      "inputs": [],
      "name": "owner",
      "outputs": [
        {
          "internalType": "address",
          "name": "",
          "type": "address"
        }
      ],
      "stateMutability": "view",
      "type": "function"
    },
    {
      "inputs": [],
      "name": "renounceOwnership",
      "outputs": [],
      "stateMutability": "nonpayable",
      "type": "function"
    },
    {
      "inputs": [
        {
          "internalType": "uint256",
          "name": "_modulus",
          "type": "uint256"
        }
      ],
      "name": "setModulus",
      "outputs": [],
      "stateMutability": "nonpayable",
      "type": "function"
    },
    {
      "inputs": [
        {
          "internalType": "uint256",
          "name": "_ticketValue",
          "type": "uint256"
        }
      ],
      "name": "setTicketValue",
      "outputs": [],
      "stateMutability": "nonpayable",
      "type": "function"
    },
    {
      "inputs": [
        {
          "internalType": "address",
          "name": "newOwner",
          "type": "address"
        }
      ],
      "name": "transferOwnership",
      "outputs": [],
      "stateMutability": "nonpayable",
      "type": "function"
    }
  ],
  "bytecode": "0x608060405260006002553480156200001657600080fd5b50604051620013533803806200135383398181016040528101906200003c91906200019c565b60006200004e6200011b60201b60201c565b9050806000806101000a81548173ffffffffffffffffffffffffffffffffffffffff021916908373ffffffffffffffffffffffffffffffffffffffff1602179055508073ffffffffffffffffffffffffffffffffffffffff16600073ffffffffffffffffffffffffffffffffffffffff167f8be0079c531659141344cd1fd0a4f28419497f9722a3daafe3b4186f6b6457e060405160405180910390a35081600381905550806004819055506200010d6003546200012360201b60201c565b6001819055505050620003d1565b600033905090565b6000600260008154809291906200013a9062000294565b9190505550814233600254604051602001620001599392919062000213565b6040516020818303038152906040528051906020012060001c6200017e919062000314565b9050919050565b6000815190506200019681620003b7565b92915050565b60008060408385031215620001b057600080fd5b6000620001c08582860162000185565b9250506020620001d38582860162000185565b9150509250929050565b620001f2620001ec8262000256565b620002e2565b82525050565b6200020d62000207826200028a565b6200030a565b82525050565b6000620002218286620001f8565b602082019150620002338285620001dd565b601482019150620002458284620001f8565b602082019150819050949350505050565b600062000263826200026a565b9050919050565b600073ffffffffffffffffffffffffffffffffffffffff82169050919050565b6000819050919050565b6000620002a1826200028a565b91507fffffffffffffffffffffffffffffffffffffffffffffffffffffffffffffffff821415620002d757620002d66200034c565b5b600182019050919050565b6000620002ef82620002f6565b9050919050565b60006200030382620003aa565b9050919050565b6000819050919050565b600062000321826200028a565b91506200032e836200028a565b9250826200034157620003406200037b565b5b828206905092915050565b7f4e487b7100000000000000000000000000000000000000000000000000000000600052601160045260246000fd5b7f4e487b7100000000000000000000000000000000000000000000000000000000600052601260045260246000fd5b60008160601b9050919050565b620003c2816200028a565b8114620003ce57600080fd5b50565b610f7280620003e16000396000f3fe60806040526004361061007b5760003560e01c8063917356cb1161004e578063917356cb14610116578063b438d0181461013f578063f2c9ecd81461016f578063f2fde38b1461019a5761007b565b80633f644101146100805780634e9f1acd146100a9578063715018a6146100d45780638da5cb5b146100eb575b600080fd5b34801561008c57600080fd5b506100a760048036038101906100a29190610a4e565b6101c3565b005b3480156100b557600080fd5b506100be610249565b6040516100cb9190610c89565b60405180910390f35b3480156100e057600080fd5b506100e9610253565b005b3480156100f757600080fd5b5061010061038d565b60405161010d9190610bd3565b60405180910390f35b34801561012257600080fd5b5061013d60048036038101906101389190610a4e565b6103b6565b005b61015960048036038101906101549190610a4e565b61043c565b6040516101669190610bee565b60405180910390f35b34801561017b57600080fd5b506101846105af565b6040516101919190610c89565b60405180910390f35b3480156101a657600080fd5b506101c160048036038101906101bc9190610a25565b610635565b005b6101cb6107de565b73ffffffffffffffffffffffffffffffffffffffff166101e961038d565b73ffffffffffffffffffffffffffffffffffffffff161461023f576040517f08c379a000000000000000000000000000000000000000000000000000000000815260040161023690610c49565b60405180910390fd5b8060038190555050565b6000600454905090565b61025b6107de565b73ffffffffffffffffffffffffffffffffffffffff1661027961038d565b73ffffffffffffffffffffffffffffffffffffffff16146102cf576040517f08c379a00000000000000000000000000000000000000000000000000000000081526004016102c690610c49565b60405180910390fd5b600073ffffffffffffffffffffffffffffffffffffffff1660008054906101000a900473ffffffffffffffffffffffffffffffffffffffff1673ffffffffffffffffffffffffffffffffffffffff167f8be0079c531659141344cd1fd0a4f28419497f9722a3daafe3b4186f6b6457e060405160405180910390a360008060006101000a81548173ffffffffffffffffffffffffffffffffffffffff021916908373ffffffffffffffffffffffffffffffffffffffff160217905550565b60008060009054906101000a900473ffffffffffffffffffffffffffffffffffffffff16905090565b6103be6107de565b73ffffffffffffffffffffffffffffffffffffffff166103dc61038d565b73ffffffffffffffffffffffffffffffffffffffff1614610432576040517f08c379a000000000000000000000000000000000000000000000000000000000815260040161042990610c49565b60405180910390fd5b8060048190555050565b60006004543414610482576040517f08c379a000000000000000000000000000000000000000000000000000000000815260040161047990610c69565b60405180910390fd5b6006339080600181540180825580915050600190039060005260206000200160009091909190916101000a81548173ffffffffffffffffffffffffffffffffffffffff021916908373ffffffffffffffffffffffffffffffffffffffff1602179055506001600560003373ffffffffffffffffffffffffffffffffffffffff1673ffffffffffffffffffffffffffffffffffffffff16815260200190815260200160002060006101000a81548160ff0219169083151502179055506001548214156105a55760006105516107e6565b905080610593576040517f08c379a000000000000000000000000000000000000000000000000000000000815260040161058a90610c09565b60405180910390fd5b61059b61085a565b60019150506105aa565b600090505b919050565b60006105b96107de565b73ffffffffffffffffffffffffffffffffffffffff166105d761038d565b73ffffffffffffffffffffffffffffffffffffffff161461062d576040517f08c379a000000000000000000000000000000000000000000000000000000000815260040161062490610c49565b60405180910390fd5b600154905090565b61063d6107de565b73ffffffffffffffffffffffffffffffffffffffff1661065b61038d565b73ffffffffffffffffffffffffffffffffffffffff16146106b1576040517f08c379a00000000000000000000000000000000000000000000000000000000081526004016106a890610c49565b60405180910390fd5b600073ffffffffffffffffffffffffffffffffffffffff168173ffffffffffffffffffffffffffffffffffffffff161415610721576040517f08c379a000000000000000000000000000000000000000000000000000000000815260040161071890610c29565b60405180910390fd5b8073ffffffffffffffffffffffffffffffffffffffff1660008054906101000a900473ffffffffffffffffffffffffffffffffffffffff1673ffffffffffffffffffffffffffffffffffffffff167f8be0079c531659141344cd1fd0a4f28419497f9722a3daafe3b4186f6b6457e060405160405180910390a3806000806101000a81548173ffffffffffffffffffffffffffffffffffffffff021916908373ffffffffffffffffffffffffffffffffffffffff16021790555050565b600033905090565b6000803373ffffffffffffffffffffffffffffffffffffffff164760405161080d90610b81565b60006040518083038185875af1925050503d806000811461084a576040519150601f19603f3d011682016040523d82523d6000602084013e61084f565b606091505b505090508091505090565b610865600354610961565b60018190555060005b600680549050811015610950576000600682815481106108b7577f4e487b7100000000000000000000000000000000000000000000000000000000600052603260045260246000fd5b9060005260206000200160009054906101000a900473ffffffffffffffffffffffffffffffffffffffff1690506000600560008373ffffffffffffffffffffffffffffffffffffffff1673ffffffffffffffffffffffffffffffffffffffff16815260200190815260200160002060006101000a81548160ff02191690831515021790555050808061094890610d08565b91505061086e565b506006600061095f91906109bd565b565b60006002600081548092919061097690610d08565b919050555081423360025460405160200161099393929190610b96565b6040516020818303038152906040528051906020012060001c6109b69190610d7f565b9050919050565b50805460008255906000526020600020908101906109db91906109de565b50565b5b808211156109f75760008160009055506001016109df565b5090565b600081359050610a0a81610f0e565b92915050565b600081359050610a1f81610f25565b92915050565b600060208284031215610a3757600080fd5b6000610a45848285016109fb565b91505092915050565b600060208284031215610a6057600080fd5b6000610a6e84828501610a10565b91505092915050565b610a8081610cc0565b82525050565b610a97610a9282610cc0565b610d51565b82525050565b610aa681610cd2565b82525050565b6000610ab9602183610caf565b9150610ac482610e1b565b604082019050919050565b6000610adc602683610caf565b9150610ae782610e6a565b604082019050919050565b6000610aff602083610caf565b9150610b0a82610eb9565b602082019050919050565b6000610b22601f83610caf565b9150610b2d82610ee2565b602082019050919050565b6000610b45600083610ca4565b9150610b5082610f0b565b600082019050919050565b610b6481610cfe565b82525050565b610b7b610b7682610cfe565b610d75565b82525050565b6000610b8c82610b38565b9150819050919050565b6000610ba28286610b6a565b602082019150610bb28285610a86565b601482019150610bc28284610b6a565b602082019150819050949350505050565b6000602082019050610be86000830184610a77565b92915050565b6000602082019050610c036000830184610a9d565b92915050565b60006020820190508181036000830152610c2281610aac565b9050919050565b60006020820190508181036000830152610c4281610acf565b9050919050565b60006020820190508181036000830152610c6281610af2565b9050919050565b60006020820190508181036000830152610c8281610b15565b9050919050565b6000602082019050610c9e6000830184610b5b565b92915050565b600081905092915050565b600082825260208201905092915050565b6000610ccb82610cde565b9050919050565b60008115159050919050565b600073ffffffffffffffffffffffffffffffffffffffff82169050919050565b6000819050919050565b6000610d1382610cfe565b91507fffffffffffffffffffffffffffffffffffffffffffffffffffffffffffffffff821415610d4657610d45610db0565b5b600182019050919050565b6000610d5c82610d63565b9050919050565b6000610d6e82610e0e565b9050919050565b6000819050919050565b6000610d8a82610cfe565b9150610d9583610cfe565b925082610da557610da4610ddf565b5b828206905092915050565b7f4e487b7100000000000000000000000000000000000000000000000000000000600052601160045260246000fd5b7f4e487b7100000000000000000000000000000000000000000000000000000000600052601260045260246000fd5b60008160601b9050919050565b7f46756e647320636f756c64206e6f742062652073656e7420746f20706c61796560008201527f7200000000000000000000000000000000000000000000000000000000000000602082015250565b7f4f776e61626c653a206e6577206f776e657220697320746865207a65726f206160008201527f6464726573730000000000000000000000000000000000000000000000000000602082015250565b7f4f776e61626c653a2063616c6c6572206973206e6f7420746865206f776e6572600082015250565b7f496e636f7272656374207469636b65742076616c756520726563656976656400600082015250565b50565b610f1781610cc0565b8114610f2257600080fd5b50565b610f2e81610cfe565b8114610f3957600080fd5b5056fea2646970667358221220171cddf2d8ca33961346d1304b9f00ae626cfb495a9e61a789e9739db0b2ec7664736f6c63430008010033",
  "linkReferences": {},
  "deployedLinkReferences": {}
}